:020000040800F2
:100000009008002045010008D5220008E9190008E1
:10001000D1220008310B0008AD2C000800000000C0
:10002000000000000000000000000000E5260008BD
:10003000550E0008000000005D230008D1270008CD
:100040005F0100085F0100085F0100085F01000810
:100050005F0100085F0100085F0100085F01000800
:100060005F0100085F0100085F0100085F010008F0
:100070005F0100085F0100085F0100085F010008E0
:100080005F0100085F0100085F0100085F010008D0
:100090005F0100085F0100085F0100085F010008C0
:1000A0005F0100085F0100085F0100085F010008B0
:1000B0005F0100085F0100085F0100085F010008A0
:1000C0005F0100085F0100085F0100085F01000890
:1000D0005F0100085F0100085F010008CD280008EB
:1000E0005F0100085F0100085F0100085F01000870
:1000F0005F0100085F0100085F0100085F01000860
:100100005F0100085F0100085F0100085F0100084F
:100110005F0100085F0100085F0100085F0100083F
:100120005F0100085F0100085F0100085F0100082F
:10013000DFF80CD000F042FB004800473D360008D5
:10014000900800200648804706480047FEE7FEE783
:10015000FEE7FEE7FEE7FEE7FEE7FEE7FEE7FEE777
:100160005528000831010008D2B201E000F8012B47
:10017000491EFBD270470022F6E710B513460A4627
:1001800004461946FFF7F0FF204610BD30B505467E
:100190002A460B4612F8010B13F8014B08B1A04296
:1001A000F8D01CB1002802D06D1CF1E7284630BD04
:1001B00030B480EA010202F0004530F0004221F044
:1001C000004013D090B1C30DD40DC2F31601C0F39B
:1001D0001600E41A41F4000140F400027D3491421B
:1001E00001D3641C00E04900002C02DA30BC00207E
:1001F00070474FF400000023914201D3891A034352
:1002000040084FEA4101F7D151B1914202D14FF07C
:10021000004105E002D24FF0010101E06FF0010161
:1002200003EBC450284430BC00F0EDB82DE9FE4F7C
:1002300081EA030404F0004421F0004100944FF0EF
:10024000000B23F0004350EA01045ED052EA03049D
:100250005BD0C3F30A54C1F30A552C44A4F2F3341F
:100260000194A0FB0254C1F3130141F48011C3F3C4
:10027000130343F4801301FB024400FB034E840A82
:10028000970A44EA815447EA8357A4FB076802951A
:100290008D0A05FB07854FEA932C04FB0C542705B8
:1002A000029D4FEA065847EA1637B5EB08056EEB94
:1002B000070C870E920E47EA811742EA8312A7FBCA
:1002C0000201B6EB0B0164EB00042B0D43EA0C3387
:1002D0005E1844EB1C50DA465146E7FB0201C5F3B9
:1002E00013044FEA0B3343EA14534FEA0432019CE0
:1002F00043EA0603A4F10C040294009CCDE900B487
:1003000000F0C7F803B0BDE8F08F00200146F9E720
:1003100096230022114600F07FB800F0004230F032
:1003200000400AD0C10D01F56071C0F3160042EA29
:100330000151C20840071143704700200146704731
:1003400001F0004330B421F0004150EA010206D030
:100350000A0DA2F56072C1F31301002A02DC30BC61
:1003600000207047440F44EAC104C100E01830BCCB
:1003700000EBC25000F047B830B50B4601460020F4
:100380002022012409E021FA02F59D4205D303FA57
:1003900002F5491B04FA02F52844151EA2F10102D8
:1003A000F1DC30BD2DE9F05F0546002092469B460A
:1003B00088460646814640241BE02846414647467B
:1003C000224600F01CFA53465A46C01A914110D3F7
:1003D00011461846224600F003FA2D1A67EB010871
:1003E0004F4622460120002100F0FAF917EB0009E0
:1003F0004E41201EA4F10104DFDC484631462A4666
:100400004346BDE8F09F0029A8BF7047401C490043
:1004100008BF20F00100704710B4B0FA80FC00FA69
:100420000CF050EA010404BF10BC704749B1CCF194
:10043000200421FA04F411FA0CF118BF0121214320
:100440000843A3EB0C01CB1D4FEA00614FEA1020DB
:1004500042BF002010BC704700EBC350104400297D
:10046000A4BF10BC7047401C490008BF20F0010029
:1004700010BC704710B5141E73F1000408DA401C5C
:1004800041F1000192185B411A4301D120F00100B3
:1004900010BD2DE9F04D92469B4611B1B1FA81F2A3
:1004A00002E0B0FA80F22032904600F099F904465A
:1004B0000F4640EA0A0041EA0B0153465A460843F8
:1004C00013D0114653EA010019D0C8F1400250463A
:1004D00000F095F905460E4650465946424600F052
:1004E0007FF9084305D0012004E020463946BDE8E5
:1004F000F08D0020054346EAE0762C4337430A9806
:100500006305E40AA0EB08000022FD0A44EA475410
:100510000A3002D500200146E9E7010510196941BA
:10052000DDE9084500196941BDE8F04DA2E72DE974
:10053000FE4F804681EA0300C00F0C46009021F078
:10054000004123F00045B8EB0200A94105D2404626
:10055000214690461C460B46024623F000401043BD
:1005600047D0270DC7F30A00C3F30A510290401A7F
:10057000019040286BDAC3F3130040F4801B00980D
:10058000924620B10023D2EB030A63EB0B0B0198D8
:100590005946C0F14002504600F022F906460D4689
:1005A00050465946019A00F03AF910EB08006141B3
:1005B000002487EA115284EAE7731A4340D0009A74
:1005C00062B3019A012A4FEA075215DC001B61EB66
:1005D00002014FF0004202EA0752CDE90042001C3E
:1005E00041F5801132462B46FFF753FF03B0BDE8BB
:1005F000F08F40462146F9E7001B61EB0201001C29
:1006000041F5801300185B412018A2F5001747EB55
:10061000030140EAD570B6196D4111E06D084FEA4B
:10062000360645EAC0754FEA0752001B61EB02012E
:10063000001C41F5801149084FEA30000019514172
:1006400032462B4603B0BDE8F04FFFF713BF0098CA
:10065000012240000023D0EB020263EBE07300981C
:1006600021464FEAE074B8EB000061EB0401E9E7D2
:1006700083F000435BE781F0004158E72DE9F04D3E
:1006800081EA030404F0004B21F0004514464FF0CA
:10069000000A23F0004150EA050220D054EA01028A
:1006A0001DD0C5F30A570246C5F31303C1F3130067
:1006B000C1F30A5640F4801543F48013A7EB0608F3
:1006C000101BD64608F2FD3873EB050002D308F183
:1006D000010801E092185B41B8F1000F03DA002035
:1006E0000146BDE8F08D00204FF480110646844697
:1006F0000EE0171B73EB050705D3121B63EB050315
:1007000006434CEA010C49084FEA300092185B415D
:1007100050EA0107EDD152EA030012D082EA040048
:1007200083EA0501084305D0101BAB4106D2012224
:10073000002306E000224FF0004302E06FF00102C8
:1007400053101AEB06004CEB085110EB0A0041EB7A
:100750000B01BDE8F04DFFF78DBEC1F30A52C1F3A6
:10076000130140F2FF3341F480119A4202DA002073
:100770000146704740F233439A42A2F2334202DC10
:10078000524200F03CB800F02BB8000030B5041E17
:1007900071F1000404DB4FF00044404264EB0101BE
:1007A000141E73F1000405DB1C464FF00043524257
:1007B00063EB0403994208BF904230BD064C074DDD
:1007C00006E0E06840F0010394E807009847103421
:1007D000AC42F6D3FFF7B0FCF072000810730008CB
:1007E000202A04DB203A00FA02F1002070479140F1
:1007F000C2F1200320FA03F3194390407047202AE6
:1008000004DB203A21FA02F00021704721FA02F3BA
:10081000D040C2F120029140084319467047202A77
:1008200006DBCB17203A41FA02F043EAE07306E018
:1008300041FA02F3D040C2F1200291400843194628
:10084000704721B1826842F00102826003E0826851
:1008500022F001028260704721B1826842F4807206
:10086000826003E0826822F48072826070470146F1
:1008700000208A6802F004020AB1012000E0002092
:100880007047014600208A6802F008020AB1012080
:1008900000E000207047000030B502460020002331
:1008A00050680F4C20400D790C6844EA0524204321
:1008B000506090680B4C2040D1E902542C434D7994
:1008C00044EA450420439060D06A20F470000C7C18
:1008D000641EE4B2234340EA0350D06230BD0000FE
:1008E000FFFEF0FFFDF7F1FFF0B504460D460020D6
:1008F0000021092D11DDE068A5F10A0606EB460787
:10090000072606FA07F18843A5F10A0606EB460614
:1009100003FA06F10843E0600CE0206905EB4507A7
:10092000072606FA07F1884305EB450603FA06F1A8
:1009300008432061072A0FDA606B561E06EB860714
:100940001F2606FA07F18843561E06EB860605FAAF
:1009500006F10843606322E00D2A0FDA206BD61FF0
:1009600006EB86071F2606FA07F18843D61F06EB1B
:10097000860605FA06F10843206310E0E06AA2F15A
:100980000D0606EB86071F2606FA07F18843A2F13B
:100990000D0606EB860605FA06F10843E062F0BD97
:1009A000816841F008018160704721B1826842F49A
:1009B000A002826003E0826822F4A0028260704795
:1009C000816841F0040181607047000008B5012191
:1009D000102001F0F1FC3F20ADF8000000208DF860
:1009E00003006946014800F03CFF08BD00100140CB
:1009F00010B5FFF7EBFF00F001F810BD00B591B0A6
:100A00000121084601F0B8FC0121480201F0D4FCA4
:100A1000444800F05BF944480690444807900020A1
:100A200008900620099000200A9080200B9040003A
:100A30000C9080000D9020200E9000020F9000205E
:100A4000109006A9374800F0E7F90121354800F079
:100A500031F90020019001208DF808008DF809007F
:100A60004FF4602003900020049006208DF81400BD
:100A700001A92D484C38FFF70FFF4FF4404001F01B
:100A80006FFC052301220A2127484C38FFF72CFF71
:100A9000052302220B2124484C38FFF725FF0523AC
:100AA00003220C2120484C38FFF71EFF05230422A7
:100AB0000D211D484C38FFF717FF05231A460E215C
:100AC00019484C38FFF710FF052306220F2116485E
:100AD0004C38FFF709FF012113484C38FFF7BCFEE3
:100AE000012111484C38FFF7ACFE0F484C38FFF796
:100AF00057FF00BF0C484C38FFF7C3FE0028F9D160
:100B000009484C38FFF75CFF00BF07484C38FFF737
:100B1000AEFE0028F9D1012103484C38FFF745FF0C
:100B200011B000BD080002404C24014064000020C8
:100B300000BFFEE708B50121402001F03DFC402048
:100B4000ADF8000010208DF8030003208DF802009E
:100B50006946024800F085FE08BD0000001801400B
:100B600010B5FFF7E7FF4021014800F010FF10BD6E
:100B70000018014008B54020ADF8000048208DF86D
:100B800003006946014800F06CFE08BD00180140F2
:100B900008B54020ADF8000010208DF803000320B8
:100BA0008DF802006946024800F05BFE08BD0000B7
:100BB0000018014070B50025002424E000BF40214A
:100BC000134800F0D9FE0028F9D0282000F044F99D
:100BD00040210F4800F0D0FE01280DD100BF402178
:100BE0000B4800F0C9FE0128F9D0C4F1070101202B
:100BF0008840C0B2054304E0C4F1070101208840E9
:100C00008543601CC4B2082CD8DB284670BD0000A8
:100C10000018014010B50446FFF7BAFF40212448F0
:100C200000F0B3FE44F2506000F016F94021204875
:100C300000F0ADFE1E2000F00FF9FFF79BFF4021F2
:100C40001B4800F099FE70BB00BF4021184800F01F
:100C500093FE0028F9D000BF4021154800F08CFE1B
:100C60000128F9D0FFF7A6FF2070FFF7A3FF6070FF
:100C7000FFF7A0FFA070FFF79DFFE070FFF79AFF5E
:100C80002071FFF785FF4021094800F080FE2078A1
:100C900061780844A1780844E178084421798842C1
:100CA00002D1012010BD01E00020FBE70020F9E7A0
:100CB0000018014021B1026842F00102026004E024
:100CC00002684FF6FE731A400260704701684FF6E3
:100CD000FE72114001600021016041608160C160CD
:100CE0004B49884208D14A490839496841F00F0107
:100CF000474A083A51608AE045491431884208D190
:100D000043490839496841F0F001414A083A5160C5
:100D10007DE03F492831884208D13D49083949687A
:100D200041F470613A4A083A516070E038493C3108
:100D3000884208D136490839496841F47041344A3B
:100D4000083A516063E032495031884208D1304955
:100D50000839496841F470212D4A083A516056E03B
:100D60002B496431884208D129490839496841F43E
:100D70007001274A083A516049E025497831884294
:100D800008D123490839496841F07061204A083A7E
:100D900051603CE01F49884206D1011F096841F0BB
:100DA0000F01021F116032E01A491431884208D144
:100DB0001849091F096841F0F001164A121F116015
:100DC00025E014492831884208D11249091F0968D1
:100DD00041F470610F4A121F116018E00D493C3157
:100DE000884208D10B49091F096841F47041094A3A
:100DF000121F11600BE007495031884207D10549A5
:100E0000091F096841F47021024A121F11607047DE
:100E1000080002400804024010B50022026847F6AC
:100E2000F0739A430C6A8B6823430C6923434C6923
:100E300023438C692343CC6923434C6A23438C6A44
:100E400023431A430260CB6843600B6883604B689E
:100E5000C36010BD7047000001B5084900980860E4
:100E60004FF0E020006940F001004FF0E021086100
:100E700000BF024800680028FBD108BD2800002000
:100E800010B500244FF400710B4800F080FD0B48B2
:100E9000FFF7E2FF0CE04FF4FA73002208A109A06B
:100EA00000F012F800B110BD00F0D0F9601CC4B21F
:100EB0000A2CF0DB00BFF6E7000C014040420F00B7
:100EC0004F4B0000415400002DE9F04106460C460E
:100ED00015461F462748B0F800046FF30E00254959
:100EE000A1F80004324624A1254801F05CFE1CB99B
:100EF00015B90120BDE8F0814FF47A7107FB01F0CC
:100F0000FFF7AAFF00201B49B1F80014C1F30E013E
:100F1000184A505411461BA001F0CAFEB4B1ADB13D
:100F200021461448FFF732F908B1012000E0002003
:100F300040B929460F48FFF729F908B1012000E020
:100F4000002008B10120D5E70020D3E744B12146B5
:100F50000848FFF71BF908B10120CBE70020C9E7DB
:100F600029460448FFF712F908B10120C2E7002022
:100F7000C0E700007000002025730D0A000000008B
:100F8000004800402573000010B586B004460CB13F
:100F9000012000E00020024606A101A801F098FE11
:100FA0004FF4FA73002207A101A8FFF78DFF06B0E6
:100FB00010BD000041542B4349504D55583D256408
:100FC000000000004F4B000010B50548FFF744FF3C
:100FD00004A1054801F0E7FD0448FFF73DFF10BDFF
:100FE00040420F002B2B2B000048004020A107009F
:100FF00008B50121082001F0DFF94FF48070ADF849
:10100000000010208DF8030003208DF802006946CF
:10101000074800F026FC0121082001F0CDF94FF42B
:101020000070ADF800006946014800F01AFC08BDE8
:10103000000C014010B54FF4FA7300220DA10EA070
:10104000FFF742FFA0B110A11248FFF79FF808B1C7
:10105000022010BD10A10F48FFF798F808B1032037
:10106000F7E710A10B48FFF791F808B10420F0E76B
:101070000020EEE74F4B000041542B43495053549E
:1010800041545553000000005354415455533A32D3
:101090000D0A0000700000205354415455533A3358
:1010A0000D0A00005354415455533A340D0A0000C0
:1010B00010B5FFF79DFF00F0BFFA4FF40071044830
:1010C00000F065FC4FF48071014800F05EFC10BD3B
:1010D000000C014030B59FB004460D462B46224619
:1010E00006A101A801F0F4FD41F28833002208A115
:1010F00001A8FFF7E9FE1FB030BD000041542B43AB
:10110000574A41503D222573222C2225732200008C
:101110004F4B0000F0B5B9B006460F4614461D46C9
:10112000642120A8FFF727F816B1012E10D107E09F
:101130003B4614A214A120A8009401F0C9FD08E0C8
:101140003B4615A210A120A8009401F0C1FD00E0CB
:1011500000BF00BF052D06DA20AB2A460FA102A86A
:1011600001F0B6FD04E020AA11A102A801F0B0FD33
:101170004FF47A6312A216A102A8FFF7A5FE39B0B8
:10118000F0BD000054435000222573222C22257309
:10119000222C2573000000005544500041542B437D
:1011A000495053544152543D25642C25730000008E
:1011B00041542B43495053544152543D2573000030
:1011C000414C5245415920434F4E4E454354000037
:1011D0004F4B000010B5044624B1012C0AD0022C5C
:1011E00018D10FE040F6C4130BA20EA10EA0FFF71A
:1011F0006BFE10BD40F6C41307A20AA10DA0FFF7B5
:1012000063FEF6E740F6C41303A206A10CA0FFF7A5
:101210005BFEEEE70020ECE76E6F206368616E67AF
:10122000650000004F4B000041542B43574D4F4485
:10123000453D310041542B43574D4F44453D32000D
:1012400041542B43574D4F44453D330010B54FF4A7
:101250000071064800F099FB0548FFF7FDFD4FF4CB
:101260000071024800F093FB10BD0000000C01402B
:1012700020A107002DE9F04186B007460C4615462F
:101280001E464FF000083FB1224614A1144801F059
:101290008AFC4FF001081CE0052E06DAAB1C324632
:1012A00010A101A801F014FD04E0AA1C12A101A8DC
:1012B00001F00EFD4FF47A73002213A101A8FFF78D
:1012C00003FE4FF47A73002210A12046FFF7FCFDC5
:1012D0008046404606B0BDE8F0810000257300005E
:1012E0000048004041542B43495053454E443D254E
:1012F000642C25640000000041542B4349505345A1
:101300004E443D25640000003E20000053454E44FD
:10131000204F4B00EAB04FF4967106A8FEF72BFF62
:101320007BA001F0C5FC4FF48071804800F02FFBDA
:10133000FFF7A6FD0020FFF74DFF00BF7CA17FA0B7
:10134000FFF7C8FE0028F9D00020FFF71DFE00BF00
:1013500005237EA27FA10020FFF7DCFE0028F7D046
:1013600000BF00F0CBF90028FBD07EA001F0A0FC6C
:10137000CCE004A8FFF74EFC01281AD19DF81330E9
:101380009DF812207DA151A801F0A2FC51AA0021D4
:10139000AA2000F045FC9DF811309DF8102079A19D
:1013A00051A801F095FC51AA1021AA2000F038FCA8
:1013B00008E077A151A801F08BFC51AA5021002030
:1013C00000F02EFC7748028977A151A801F080FC3B
:1013D00051AA3021AA2000F023FC7248428972A150
:1013E00051A801F075FC51AA2021AA2000F018FC98
:1013F0006C490889FEF78CFF82464FF08B41FEF75F
:10140000D7FE8146FEF789FF07464FF06632674BED
:10141000FEF70CFF0546FEF793FF65490861614939
:101420004889FEF775FF82464FF08B41FEF7C0FEFC
:101430008146FEF772FF07464FF066325B4BFEF7C0
:10144000F5FE0546FEF77CFF594948610869FEF73D
:1014500064FF05462A460B4656A001F029FC544974
:101460004869FEF75AFF05462A460B4657A001F089
:101470001FFC5CA001F01CFC4A48008949494989CD
:101480009DF813209DF81230CDE90032CDE902100D
:101490009DF811309DF81020544906A801F018FC61
:1014A00006A953A001F004FC0523002206A901208F
:1014B000FFF7E0FE4F48FFF7CFFC4F4800780028C9
:1014C00024D0FFF781FD00BFFFF7B4FD0446002CD8
:1014D000FAD0042C15D149A001F0EAFB00BF14A1F9
:1014E00016A0FFF7F7FD0028F9D000BF052317A2CB
:1014F00018A10020FFF70EFE0028F7D047A001F04A
:10150000D7FB00BF00F0FAF80028FBD031E700005D
:101510000D0AD5FDD4DAC5E4D6C320455350383280
:101520003636202E2E2E2E2E2E0D0A00000C0140B7
:101530003132333132333132333500004869576943
:1015400046695F3442354243450000003830383048
:10155000000000003139322E3136382E3139392E23
:10156000313534000D0AC5E4D6C320455350383216
:10157000363620CDEAB1CF0D0A00000025642E25B5
:101580006400000025642E256425255248200000B3
:1015900052656164204448543131204552524F52C3
:1015A000210D0A00640000202564000066660A40E0
:1015B000740400200D0A204348342076616C756560
:1015C000203D2025662056200D0A00000D0A2043EC
:1015D00048352076616C7565203D202566205620B3
:1015E0000D0A00000D0A0D0A0000000098720008A4
:1015F0002573000060E316005C0000200D0AD5FD95
:10160000D4DAD6D8C1ACC8C8B5E3BACDB7FECEF1EE
:10161000C6F7202E2E2E2E2E2E0D0A000D0AD6D8FD
:10162000C1ACC8C8B5E3BACDB7FECEF1C6F7B3C9F1
:10163000B9A60D0A0000000000B585B0012188049C
:1016400000F0AAFE0121082000F0B6FE4FF48060F1
:10165000ADF8100018208DF8130003208DF812004B
:1016600004A91A4800F0FDF84FF40060ADF810002E
:1016700004208DF8130004A9144800F0F2F84FF488
:10168000E13000900020ADF80400ADF80600ADF8A0
:101690000800ADF80C000C20ADF80A0069460C48B3
:1016A00001F00CFA012240F22551094801F0E1F95C
:1016B000012240F22441064801F0DBF900F00AF86B
:1016C0000121034801F052F905B000BD000C0140B2
:1016D0000048004008B54FF4A06000F035FE272018
:1016E0008DF8000000208DF801008DF80200012027
:1016F0008DF80300684600F0EFFD08BD10B54FF40B
:10170000FA73002207A108A0FFF7DEFB08B900204A
:1017100010BD4FF4FA7308A202A108A0FFF7D4FB92
:10172000F6E700004F4B000041542B4349504D4F0A
:1017300044453D31000000003E00000041542B4371
:10174000495053454E44000051B18200A2F1C042BD
:10175000126842F001038200A2F1C042136009E066
:101760008200A2F1C0421268034B1A408300A3F129
:10177000C0431A6070470000FEFF0F00D0E901125D
:101780001143C268114302691143426911438269DE
:101790001143C2691143026A1143426A1143826ACA
:1017A0001143C26A1143026B114302689200A2F115
:1017B000C0421160816808290BD101688900A1F13C
:1017C000C041096841F0400201688900A1F1C041AF
:1017D0000A60416B0968426B526841EA0211426B30
:1017E000926841EA0221426B928941EA0241426BCE
:1017F000128A41EA0251426B127D41EA0261426B58
:10180000926911430268521C9200A2F1C042116019
:10181000C16AB1F5804F1BD1816B0968826B526838
:1018200041EA0211826B926841EA0221826B128ABC
:1018300041EA0251826B127D41EA0261826B926938
:10184000114302689200A2F1C042C2F8041107E0FD
:101850006FF0704201688900A1F1C041C1F8042114
:1018600070472DE9F04102460025002600200023A4
:101870000024002791F803C00CF00F0591F803C075
:101880000CF0100CBCF1000F03D091F802C04CEA30
:10189000050591F800C0BCF1000F31D0146800209C
:1018A0002BE04FF0010C0CFA00F3B1F800C00CEA89
:1018B00003069E4220D183004FF00F0C0CFA03F771
:1018C000BC4305FA03FC4CEA040491F803C0BCF1E4
:1018D000280F06D14FF0010C0CFA00FCC2F814C01E
:1018E0000AE091F803C0BCF1480F05D14FF0010C9C
:1018F0000CFA00FCC2F810C0401C0828D1D31460B8
:10190000B1F800C0BCF1FF0F34DD546800202EE0B8
:1019100000F1080C4FF0010808FA0CF3B1F800C010
:101920000CEA03069E4221D183004FF00F0C0CFA03
:1019300003F7BC4305FA03FC4CEA040491F803C026
:10194000BCF1280F05D100F1080C08FA0CF8C2F818
:10195000148091F803C0BCF1480F07D100F1080CC6
:101960004FF0010808FA0CF8C2F81080401C082853
:10197000CED35460BDE8F0810246002093680B404E
:101980000BB1012000E00020704741617047016108
:10199000704700002DE9F04180460C461048007861
:1019A00020B900F0B7FD01200D4908702512E6B2FC
:1019B000A5F1A101C1EB011202EB411106EB4101BE
:1019C000A1390802C11700EB5171CF100548391831
:1019D0002022404600F076FD0020BDE8F0810000A6
:1019E000440000200030180000BFFEE710B5044698
:1019F0002CB14FF480510548FFF7C7FF04E04FF4C6
:101A000080510248FFF7C3FF10BD000000140140E1
:101A10002DE9F04106460F4614461D462B46224648
:101A20003946304600F0D2FA04FB05F00249098835
:101A300000F07FF9BDE8F0815A00002001B502E016
:101A40000098401E009000980028F9D108BD0000C1
:101A50002DE9F04389B080468946174610231A467F
:101A60004946404600F0B2FA2C2000F00BFC394603
:101A700001A8FFF78FFF002422E001A810F81460EE
:101A80004FF6FF7000EA0626012000EB440001A992
:101A9000085C064300250FE04FF400402841304029
:101AA00020B10A48008800F0F1FB03E008480088F4
:101AB00000F0ECFB681CC5B2102DEDDB601CC4B25D
:101AC000102CDADB09B0BDE8F083000058000020DC
:101AD0005A0000202DE9F05F804689461646A6F19F
:101AE00020001FFA80FA1E49096889881C4A12687A
:101AF000D28801FB02F0C11700EB5171C1F3C70797
:101B00001748006800680AFB070B15480068C3887F
:101B10001348006882884946404600F057FA2C2056
:101B200000F0B0FB002416E0002510E01BF80400D4
:101B300080212941084020B10A48008800F0A6FB16
:101B400003E00948008800F0A1FB681CC5B2082D1D
:101B5000ECDB601CC4B2BC42E6DBBDE8F09F0000D9
:101B600054000020580000205A0000202DE9F041C8
:101B700005460C46002648E020787E2825DC3046C5
:101B8000244909688988084423490988884205DD71
:101B9000002620480068C088284485B228461D4990
:101BA0000968C98808441D490988884201DD002662
:101BB0000025227829463046FFF78CFF154800683B
:101BC0008088304486B2641C1FE0304610301249D1
:101BD0000988884203DD002605F1100085B22846F9
:101BE00010300E490988884201DD0026002527882B
:101BF000380200EB272087B23A4629463046FFF7E5
:101C000027FF06F1100086B2A41C20780028B3D16B
:101C1000BDE8F081540000204C0000204E00002060
:101C20002DE9F04105460E46144648E020787E280E
:101C300025DC2846244909688988084423490988FD
:101C4000884205DD002520480068C088304486B2FF
:101C500030461D490968C98808441D4909888842D9
:101C600001DD00250026227831462846FFF732FFA5
:101C7000154800688088284485B2641C1FE0284607
:101C8000103012490988884203DD002506F1100052
:101C900086B2304610300E490988884201DD0025A1
:101CA00000262788380200EB272087B23A463146C3
:101CB0002846FFF7CDFE05F1100085B2A41C207860
:101CC0000028B3D1BDE8F081540000204C00002072
:101CD0004E00002000B597B00121080200F04CFB37
:101CE00001200190042003908006079000200290BC
:101CF0000490059006900890099008200A90102002
:101D00000B9000200C900E900F9010904FF480508C
:101D10001190002012901390149001A81590169025
:101D200008A8FFF72BFD01210020FFF70DFD17B0DC
:101D300000BD70B504460D4600262C2000F0A2FA26
:101D400000BF03E0284600F0A1FA761CA642F9D3B2
:101D500070BD000008B50121602000F02DFB0320BC
:101D60008DF8020018208DF803004FF48040ADF884
:101D7000000069465B48FFF774FD4FF40040ADF882
:101D8000000069465748FFF76CFD0120ADF80000E0
:101D900069465448FFF765FD0220ADF8000069462A
:101DA0005048FFF75EFD8020ADF8000069464E48C0
:101DB000FFF757FD4FF48070ADF8000069464A48C0
:101DC000FFF74FFD4FF40070ADF80000694646483C
:101DD000FFF747FD4FF48060ADF8000069464248C8
:101DE000FFF73FFD4FF40060ADF8000069463E4844
:101DF000FFF737FD4FF48050ADF8000069463A48D0
:101E0000FFF72FFD4FF40050ADF80000694636484B
:101E1000FFF727FD4FF48040ADF8000069463248D7
:101E2000FFF71FFD4FF40040ADF8000069462E4853
:101E3000FFF717FD4FF48070ADF8000069462948A0
:101E4000FFF70FFD4FF40070ADF80000694625481C
:101E5000FFF707FD4FF48060ADF8000069462148A8
:101E6000FFF7FFFC03208DF8020018208DF8030017
:101E70001020ADF8000069461A48FFF7F2FC202058
:101E8000ADF8000069461748FFF7EBFC8020ADF87D
:101E9000000069461348FFF7E4FC4FF40060ADF81A
:101EA000000069460F48FFF7DCFC10208DF80300A6
:101EB00003208DF802000220ADF8000069460A48B0
:101EC000FFF7CFFC10208DF8030003208DF80200EF
:101ED0004FF48050ADF8000069460248FFF7C1FC9E
:101EE00008BD0000001401400018014010B5044670
:101EF000072C00DD10BD28480470204604EBD0718B
:101F00004910A4EB410139B9F020244908804FF46D
:101F1000A0702349088006E04FF4A0701F49088094
:101F2000F0201F490880362000F0ACF9082141EA72
:101F3000441000F0ABF92A2000F0A4F9002000F0D2
:101F4000A5F9002000F0A2F914490988491EC1F33F
:101F5000072000F09BF911490978491EC8B200F02A
:101F600095F92B2000F08EF9002000F08FF9002069
:101F700000F08CF90A490988491EC1F3072000F0D6
:101F800085F907490978491EC8B200F07FF92C206D
:101F900000F078F900BFADE7500000204C000020B1
:101FA0004E00002010B5FFF7D5FEFFF793FE01208D
:101FB000FFF71CFD00F052F900F038F802480078F5
:101FC000FFF794FF10BD0000500000202DE9F04104
:101FD00004460D4616461F462A2000F053F92012EB
:101FE00000F054F9E0B200F051F9A119491EC1F313
:101FF0000F2000F04BF9A119491EC8B200F046F9B4
:102000002B2000F03FF9281200F040F9E8B200F070
:102010003DF9E919491EC1F30F2000F037F9E9191C
:10202000491EC8B200F032F9BDE8F08110B5CF20EA
:1020300000F028F9002000F029F9812000F026F9AD
:10204000302000F023F9ED2000F01CF9642000F0AE
:102050001DF9032000F01AF9122000F017F9812071
:1020600000F014F9E82000F00DF9852000F00EF9D9
:10207000102000F00BF9782000F008F9CB2000F0D8
:1020800001F9392000F002F92C2000F0FFF80020BF
:1020900000F0FCF8342000F0F9F8022000F0F6F827
:1020A000F72000F0EFF8202000F0F0F8EA2000F030
:1020B000E9F8002000F0EAF8002000F0E7F8B1208D
:1020C00000F0E0F8002000F0E1F81B2000F0DEF85E
:1020D000B62000F0D7F80A2000F0D8F8A22000F0CF
:1020E000D5F8C02000F0CEF8352000F0CFF8C120A0
:1020F00000F0C8F8112000F0C9F8C52000F0C2F8BF
:10210000452000F0C3F8452000F0C0F8C72000F0DB
:10211000B9F8A22000F0BAF8F22000F0B3F80020DD
:1021200000F0B4F8262000F0ADF8012000F0AEF881
:10213000E02000F0A7F80F2000F0A8F8262000F01B
:10214000A5F8242000F0A2F80B2000F09FF80E2044
:1021500000F09CF8092000F099F8542000F096F85F
:10216000A82000F093F8462000F090F80C2000F032
:102170008DF8172000F08AF8092000F087F80F206A
:1021800000F084F8072000F081F8002000F07EF8CD
:10219000E12000F077F8002000F078F8192000F036
:1021A00075F81B2000F072F8042000F06FF8102082
:1021B00000F06CF8072000F069F82A2000F066F8BB
:1021C000472000F063F8392000F060F8032000F0A9
:1021D0005DF8062000F05AF8062000F057F830208D
:1021E00000F054F8382000F051F80F2000F04EF8BD
:1021F000362000F047F8C82000F048F82A2000F008
:1022000041F8002000F042F8002000F03FF80020E4
:1022100000F03CF8EF2000F039F82B2000F032F805
:10222000002000F033F8002000F030F8012000F02A
:102230002DF83F2000F02AF83A2000F023F855202E
:1022400000F024F8112000F01DF80348FFF7F6FB1A
:10225000292000F017F810BDFCBF020010B50221C4
:102260000748FFF792FB40F6FF20FFF7E7FB02214C
:102270000348FFF78CFB40F6FF20FFF7DFFB10BDA4
:10228000001801404FF0C0410880704701490880A4
:1022900070470000000002600148006870470000BD
:1022A00054000020024A1080024A1180704700004A
:1022B000580000205A0000200149086070470000C3
:1022C0005400002001490880704700005800002099
:1022D00000BFFEE77047000070B5002100230F2209
:1022E000C47804B3154C246804F4E064C4F5E064D5
:1022F000210AC1F10403CA40447804FA03F1847846
:102300001440214309010E4C0678A155047804F0CD
:102310001F050124AC4005786D11AD0005F1E025E5
:10232000C5F8004109E0047804F01F050124AC4021
:10233000044D0678761145F8264070BD0CED00E09E
:1023400000E400E080E100E002490143024A11603C
:10235000704700000000FA050CED00E07047000037
:1023600001460020034A506820F440400843506072
:10237000704700000010024029B1064A526902432A
:10238000044B5A6104E0034A52698243014B5A618B
:10239000704700000010024029B1064AD26902438A
:1023A000044BDA6104E0034AD2698243014BDA61EB
:1023B000704700000010024029B1064A92690243AA
:1023C000044B9A6104E0034A92698243014B9A618B
:1023D000704700000010024030B5002100220024A8
:1023E00000232D4D6D6805F00C0121B1042905D0A5
:1023F000082923D105E0294D056022E0274D05601D
:102400001FE0254D6D6805F47012234D6D6805F4CD
:102410008034022505EB92421CB9214D55430560DD
:102420000BE01D4D6D6805F400351DB11C4D554385
:10243000056002E0194D5543056002E0174D056047
:1024400000BF00BF144D6D6805F0F0010909154D7E
:102450006B5C0568DD4045600F4D6D6805F4E0611B
:10246000090A104D6B5C4568DD4085600A4D6D685A
:1024700005F46051C90A0B4D6B5C4568DD40C560D1
:10248000054D6D6805F44041890B074D6B5CC568CF
:10249000B5FBF3F5056130BD0010024000127A0073
:1024A00000093D00140000202400002021B1028812
:1024B00042F04002028004E002884FF6BF731A40E7
:1024C0000280704770B505460C461646012110483B
:1024D000FFF75BFA032000F07DF8C4F3074000F03B
:1024E00079F8C4F3072000F075F8E0B200F072F854
:1024F00004E0FF2000F06EF828706D1C3000A6F19B
:1025000001018EB2F5D101210148FFF740FA70BDFB
:102510000010014000B587B001210803FFF74CFF10
:102520000121D420FFF748FF0120ADF8040003206B
:102530008DF8060010208DF8070001A92248FFF74A
:1025400090F92020ADF8040018208DF8070001A9AB
:102550001E48FFF786F94020ADF8040001A91B488A
:10256000FFF77FF98020ADF8040001A91748FFF7B5
:1025700078F901211448FFF70AFA0020ADF80800A5
:102580004FF48270ADF80A000020ADF80C00022074
:10259000ADF80E000120ADF810004002ADF81200B9
:1025A0000820ADF814000020ADF816000720ADF8A3
:1025B000180002A9064800F057F801210448FFF767
:1025C00075FF07B000BD0000001001400008014089
:1025D0000030014010B504464FF48050194908609E
:1025E0000AE018490868411E164A116020B9002007
:1025F00000F058F8C0B210BD0221134800F026F8D0
:102600000028EED02146104800F02CF84FF48050FE
:102610000C4908600AE00B490868411E094A11602C
:1026200020B9012000F03EF8C0B2E4E701210648DD
:1026300000F00CF80028EED0034800F010F8C0B20B
:10264000D9E7000048000020003001400246002089
:1026500013890B400BB1012000E0002070470146B8
:10266000888970478181704710B50022028802F482
:1026700041520B884C8823438C882343CC882343C6
:102680000C8923434C8923438C892343CC892343DE
:102690001A430280838B4FF2FF74234083830B8A9B
:1026A000038210BD10B50446214602A000F000FBD5
:1026B000002010BD3C3C2D464C4153482D45525204
:1026C0004F522D3E3E2053504920B5C8B4FDB3AC07
:1026D000CAB1216572726F72436F6465203D202517
:1026E000640A0000704710B500F002F810BD000049
:1026F0000CB50020019000903348006840F4803011
:102700003149086000BF3048006800F40030009094
:102710000198401C0190009818B90198B0F5A06F7D
:10272000F1D12948006800F4003010B10120009078
:1027300001E0002000900098012843D12348006860
:1027400040F01000214908600846006820F00300AE
:1027500008600846006840F0020008601A484068B7
:10276000194948600846406848600846406840F497
:10277000806048600846406820F47C104860084645
:10278000406840F4E81048600846006840F08070F7
:10279000086000BF0C48006800F000700028F9D005
:1027A0000948406820F0030007494860084640682F
:1027B00040F00200486000BF0348406800F00C0091
:1027C0000828F9D10CBD0000001002400020024092
:1027D00010B500F06FF810BD30B51A4800681A4AFD
:1027E000B0FBF2F1B1F1807F01D301201DE021F0B7
:1027F0007F40401E4FF0E022506150170F2200280A
:1028000007DA13071D0E114B00F00F04241F1D558E
:1028100003E013071C0E0E4B1C5400BF00204FF0AA
:10282000E022906107201061002008B100BFFEE7A0
:102830004FF0E020006920F001004FF0E021086136
:1028400030BD00000000002040420F0018ED00E005
:1028500000E400E010B51348006840F001001149A1
:10286000086008464068104908400E49486008461C
:1028700000680E4908400B4908600846006820F4CB
:10288000802008600846406820F4FE0048604FF44D
:102890001F008860FFF727FF4FF0006004490860C1
:1028A00010BD0000001002400000FFF8FFFFF6FE20
:1028B00008ED00E00448006820B103480068401EAD
:1028C00001490860704700002800002010B540F260
:1028D0002551204800F0A3F8D8B11E4800F05AF95D
:1028E000C4B21D48B0F80004C0F30E0040F2FF313E
:1028F00088420EDA1849B1F80014C1F30E00411CE9
:10290000154AB2F8002461F30E021349A1F800241D
:102910000C5440F224410F4800F081F8012817D1EF
:102920000D48B0F8000420F4004000F500400A49CA
:10293000A1F80004074800F02DF9C4B207A1064829
:10294000FDF724FC08B1012000E0002006490870D2
:1029500010BD00000048004070000020434C4F5361
:1029600045440D0A000000005C00002021B182896E
:1029700042F40052828104E082894DF6FF731A40CE
:102980008281704700B585B001210420FFF714FD56
:1029900001218803FFF710FD4FF40070ADF810001F
:1029A00018208DF8130003208DF8120004A9134895
:1029B000FEF757FF4FF48060ADF8100004208DF84B
:1029C000130004A90D48FEF74CFF4FF4E1300090CE
:1029D0000020ADF80400ADF80600ADF80800ADF831
:1029E0000C000C20ADF80A006946054800F066F8B6
:1029F00001210348FFF7BAFF05B000BD0008014000
:102A00000038014002460020B1F5007F00D100BF30
:102A100013880B400BB1012000E00020704770B517
:102A20000246002400230025002040F66A16B14229
:102A300000D100BFC1F3421501F01F03012606FAC1
:102A400003F3012D02D19689334006E0022D02D115
:102A5000168A334001E0968A33400C12012606FAAA
:102A600004F41688344013B10CB1012000E00020BA
:102A700070BDF0B50346002400260025002040F676
:102A80006A17B94200D100BF1846C1F3421401F0E1
:102A90001F06012707FA06F5012C01D10C3004E0CE
:102AA000022C01D1103000E014301AB107682F4316
:102AB000076002E00768AF430760F0BD2DE9F0470B
:102AC00086B005460E460024A24600BFA146002758
:102AD000B08900B100BF2F462C8A4CF6FF7004402D
:102AE000F08804432C82AC894EF6F3100440B08881
:102AF00031890843718908430443AC81AC8A4FF69D
:102B0000FF400440B0890443AC8201A8FFF764FC95
:102B10001F48874202D1DDF810A001E0DDF80CA0CB
:102B2000A88900F4004040B10AEBCA0000EB0A108B
:102B300031684900B0FBF1F807E00AEBCA0000EB8E
:102B40000A1031688900B0FBF1F86420B8FBF0F09E
:102B500004012009642101FB1089A88900F40040C8
:102B600040B1322000EBC900B0FBF1F000F00700EB
:102B7000044308E0322000EB09106421B0FBF1F0BF
:102B800000F00F0004432C8106B0BDE8F087000080
:102B90000038014001468888C0F308007047C1F33F
:102BA0000802828070470FB470B586B006460CA844
:102BB000019073E00B9800785C281CD10B98401CA6
:102BC0000B9000786E2809D072280FD10D21304665
:102BD000FFF7E5FF0B98401C0B900BE00A213046F5
:102BE000FFF7DDFF0B98401C0B9003E00B98401C97
:102BF0000B9000BF4BE00B980078252840D10B9834
:102C0000401C0B900078642818D0732833D10198A9
:102C100010C801900BE021783046FFF7C0FF00BFDD
:102C200080213046FFF7EEFE0028F9D0641C2078A2
:102C30000028F0D10B98401C0B9020E0019820C890
:102C400001900A2202A9284600F0C6FC02AC0BE063
:102C500021783046FFF7A3FF00BF80213046FFF701
:102C6000D1FE0028F9D0641C20780028F0D10B9800
:102C7000401C0B9003E00B98401C0B9000BF06E03B
:102C80000B9810F8011B0B903046FFF788FF00BF30
:102C900080213046FFF7B6FE0028F9D00B98007867
:102CA000002887D106B070BC5DF814FB00BFFEE7BA
:102CB0000FB4054B10B503A9044A029800F0DEF8E2
:102CC00010BC5DF814FB0000B53500086000002062
:102CD0000FB4084B10B504A902AA039800F0CEF86F
:102CE000044602A9002000F060FC204610BC5DF8FC
:102CF00014FB0000AB35000802E008C8121F08C131
:102D0000002AFAD170477047002001E001C1121F6C
:102D1000002AFBD1704700002DE9FF5FDDE90220AA
:102D2000010DDDF838B0024318D044F61050A1F27E
:102D3000FF3141430D140F98012820D0A5EB0B0063
:102D4000401C5FEA000A4FF00004474EDFF81C9178
:102D5000A046504616D5CAF1000728E00F98012476
:102D600043A2012808D0002100980F9BC0E9002150
:102D7000C0E90243BDE8FF9F6FEA0B01F4E7CBF126
:102D80000000DEE7074612E0F80707D02246334688
:102D900040464946FDF74AFA804689462246334670
:102DA00010461946FDF742FA04460E467F10002FE2
:102DB000EAD1DDE90201BAF1000F42464B4602DAE0
:102DC000FDF734FA01E0FDF759FC04460E460022F7
:102DD000284BFDF7DBFC03D84FF0FF30014607E03E
:102DE0000022254B20463146FDF7A1FBFDF7B5FC3F
:102DF000102409E0002C0ADB0A220023FDF7D2FA96
:102E0000019B30321A55641E50EA0102F2D1641C53
:102E1000019AC4F1110314440F9A012A03D001222C
:102E200008430DD10AE0084304D000204FF0110BF5
:102E30000F9080E7A3EB0B056D1E0DE05B4504DDF5
:102E40004FF0000205F1010504E003DA4FF0000243
:102E5000A5F10105002AECD000980F99C0E90231D4
:102E6000C0E9004586E70000000024400000F03F74
:102E7000300000000000F0430000E03F2DE9FF4F6C
:102E800095B09B468946064600250FE2252877D156
:102E900000242746F84A0121059400E0044316F86F
:102EA000013F203B01FA03F01042F7D130782A2885
:102EB00011D06FF02F033078A0F13002092A16D814
:102EC000059A44F0020402EB820203EB4202104432
:102ED000761C0590EFE759F8042B0592002A03DAD7
:102EE000504244F40054059044F00204761C3078BB
:102EF0002E2816D116F8010F44F004042A280DD00C
:102F00006FF02F023078A0F13003092B09D807EBBE
:102F1000870302EB4303C718761CF3E759F8047BD9
:102F2000761C30786C280FD006DC4C2817D0682827
:102F30000DD06A2814D104E0742810D07A280FD15B
:102F40000DE044F400140AE044F4801401E044F479
:102F500040147278824202D104F58014761C761CEB
:102F6000307866280BD013DC582877D009DC00288D
:102F700075D04528F6D04628F4D047281AD19DE1CF
:102F800018E0632835D0642879D0652812D195E1FE
:102F9000702873D008DC6728F1D069286FD06E28BC
:102FA0000DD06F2806D1B5E073282CD0752875D0C8
:102FB000782874D05A46179990476D1C75E1C4F370
:102FC0000250022809D003280DD0D9F80010042897
:102FD0000DD00D6009F1040967E1D9F80010EA1776
:102FE000C1E90052F6E7D9F800100D80F2E70D7044
:102FF000F0E719F8041B8DF8001000208DF801008F
:10300000EA46012003E059F804AB4FF0FF306107B6
:103010004FF0000102D40DE008F101018846B942E9
:103020000FDA8045F8DB1AF808100029F4D108E01F
:1030300008F1010188468142FADB1AF808100029DC
:10304000F6D105985B46A0EB080721463846179A4B
:1030500000F094FA284400EB080507E04DE029E170
:103060000DE01AF8010B5A4617999047B8F101087C
:10307000F7D25B4621463846179A13E142E00A220E
:103080000092C4F302524FF0000A022A08D059F805
:1030900004CB032A4FEAEC710AD00DE029E02AE0C4
:1030A00009F1070121F00702F2E802C1914609E0A7
:1030B0000FFA8CFC4FEAEC71042A03D14FFA8CFC16
:1030C0004FEAEC71002907DA0A460021DCF1000C16
:1030D00061EB02012D2202E0220504D52B228DF89E
:1030E0000420012203E0E20701D02022F7E7904606
:1030F00059E00A2102E010220DE010214FF0000AF1
:1031000000910BE010224FF0000A44F0040408275D
:10311000009203E008224FF0000A0092C4F302522A
:10312000022A05D059F804CB0021032A08D009E06F
:1031300009F1070121F00702F2E802C1914605E01A
:103140001FFA8CFC042A01D10CF0FF0C4FF0000890
:10315000220728D5702806D0009B83F0100353EA7D
:103160000A0305D00EE040228DF80420012208E079
:103170005CEA010206D030228DF804208DF80500AB
:1031800002229046009B83F0080353EA0A030AD107
:103190005CEA010201D1620705D530228DF80420D6
:1031A0004FF001087F1E582804D034A003900EA8C9
:1031B00002900DE036A0F9E753466046009AFDF70D
:1031C000F1F884460398825C0298401E02900270D7
:1031D0005CEA0100F0D1029806A9081A00F1200A61
:1031E000600702D524F4803400E00127574502DD52
:1031F000A7EB0A0000E0002000EB0A010090059810
:103200004144401A0590E00306D45B462146179AD4
:10321000059800F0B3F90544002706E001A85A46D6
:10322000C05D179990476D1C7F1C4745F6DBE00396
:103230000CD55B462146179A059800F09FF9054486
:1032400004E030205A46179990476D1C0099481E9B
:1032500000900029F5DC08E0029802995A460078AF
:10326000491C0291179990476D1CBAF10001AAF10F
:10327000010AF1DC65E10000092801003031323338
:1032800034353637383961626364656600000000A2
:10329000303132333435363738394142434445468C
:1032A0000000000000F058F90544761C3078002832
:1032B0007FF4ECAD19B02846BDE8F08F620700D46A
:1032C000062709F1070222F0070CFCE80223E14679
:1032D00003F000485FEA080C02D00FF2702C0DE0FA
:1032E0005FEA045C02D50FF2682C07E05FEAC47C59
:1032F00002D00FF2602C01E0AFF2700C4FF0FF38FB
:1033000023F00043CDF850C065280CD006DC4528DA
:1033100009D046281DD047283DD13DE0662818D069
:1033200067287ED138E00021112F01DB112000E059
:10333000781CCDE9000106A90EA8FFF7EDFCDDE938
:103340000F010E9A03910021009207F1010A0491E6
:103350004DE04FF000400097CDE9011006A90EA8FE
:10336000FFF7DAFCDDE90F0203920E9B11990022B0
:10337000DDF80CA00093049211B9791C00EB010A4E
:10338000B7EB0A0004D4C0F1FF3007F1010A049042
:10339000AAEB0700019044E0012F00DA0127002189
:1033A000112F01DD112000E03846CDE9000106A90A
:1033B0000EA8FFF7B1FCDDE90F010E9A0391002181
:1033C00004910092BA4621070CD40399514500DAC2
:1033D0008A46BAF1010F05DD009AAAF10101515C9C
:1033E000302908D0B84202DA10F1040F06DA0121C0
:1033F000CDE9011015E0AAF10101E9E7002805DC9B
:10340000049901440491AAEB000102E0411C5145DA
:1034100000DD8A460499401A401C01904FF000409C
:103420000290200704D40198504501DBCDF80480B8
:1034300000208DF84F0002980DF14F07B0F1004FBA
:1034400025D02B200E9002984FF0020800280CDAAD
:10345000404202902D200E9007E00A210298FCF7CE
:103460008BFF3031029007F8011DB8F10001A8F17F
:103470000108F2DC02980028EFD1791E0E9808703E
:10348000307800F0200040F0450007F8020D12A847
:10349000C01B00F107081498007800B1012000EB70
:1034A0000A01019801EBE07105984144401A401E61
:1034B0000590E00306D45B462146179A059800F074
:1034C0005DF805441498007818B15A46179990474A
:1034D0006D1CE00324D55B462146179A059800F041
:1034E0004DF805441CE00498002807DBDDE90301E2
:1034F000884203DD0098405C179901E0179930205D
:103500005A469047049805F10105401C0490019823
:10351000401E019004D12E205A46179990476D1CE9
:10352000BAF10001AAF1010ADDDC05E017F8010B90
:103530005A46179990476D1CB8F10001A8F101088F
:10354000F4DC5B462146179A0598ABE62D00000097
:103550002B000000200000002DE9F041044600256A
:103560001E461746880404D405E039462020B0479B
:103570006D1C641EF9D52846BDE8F0812DE9F041A7
:10358000044600251E469046C80301D5302700E0BA
:103590002027880404D505E041463846B0476D1C15
:1035A000641EF9D52846BDE8F0810A68531C0B60FB
:1035B0001070704770B504460D46E1B20548FFF73C
:1035C000EEFA00BF80210348FFF71CFA0028F9D06B
:1035D000204670BD00380140F0B503460D46164642
:1035E000002729460A2E03D0002008702846F0BD87
:1035F00033B9302001F8010B002008702846F6E7A7
:10360000002B03DA2D2001F8010B5B4242F210720D
:103610000DE093FBF2F404B937B104F1300001F886
:10362000010B04FB123301270A2092FBF0F2002A5F
:10363000EFDC002008702846D9E70000FDF790FA7B
:10364000FEF7B0FCFFF7C8F8FDF732FDFFF79AF977
:10365000FDF7CEF90620FEF749FC2248FEF72CFEC6
:1036600000210846FEF71EFE1F4803881F480288F7
:1036700000210846FEF7CCF94FF47840FEF722FE11
:10368000FEF70AFE00241AA12046FEF76FFAFEF7A5
:1036900003FEC48819A12046FEF768FAFEF7FCFD78
:1036A000C0884004040C18A12046FEF75FFAFEF71C
:1036B000F3FDC08800EB400084B217A12046FEF75E
:1036C00055FAFEF7E9FDC0888004040C16A12046D7
:1036D000FEF74CFA4FF6E070FEF7F4FDFDF71AFE28
:1036E00000BFFEE72C0000204E0000204C00002010
:1036F000B5B1C7B0CEC2B6C8D6B53A00B5B1C7B03D
:10370000CAAAB6C8D6B53A00B5B1C7B0434FC5A826
:10371000B6C8D6B53A000000B5B1C7B0BCD7C8A985
:10372000C5A8B6C8D6B53A00B5B1C7B0BBD2B3BE0E
:10373000C5A8B6C8D6B53A000000000000000000D9
:103740000000000000000000000000181818181801
:103750001808000818000000000000342424240089
:1037600000000000000000000000000016247F247C
:1037700024247E2424000000000000083E684868DD
:103780001C1612127C10100000000061D296740802
:1037900010162949C6000000000000003C6464388F
:1037A000724ACE467F00000000000018181818006A
:1037B00000000000000000000000000408181030A5
:1037C0003030301010180C04000000201008080CD5
:1037D0000404040C08181020000000080A341C6AB5
:1037E00008000000000000000000000000001818A1
:1037F000187F1818180000000000000000000000EA
:103800000000001818083000000000000000000050
:10381000003C00000000000000000000000000006C
:1038200000000018180000000000000206040C0848
:103830000810102020400000000000003C664247B5
:103840005B7342663C0000000000000018784808E6
:10385000080808087E000000000000003C4606063C
:10386000040810207E000000000000007C06060412
:103870003C0202067C000000000000000C1C142426
:103880006444FF0404000000000000007E606060EB
:103890007E0202067C000000000000001E3060482E
:1038A000764242623C000000000000007E020604F6
:1038B0000C08181030000000000000003C62423686
:1038C0001C6642423C000000000000003C66424290
:1038D000661A0204780000000000000000001818BA
:1038E0000000001818000000000000000000181878
:1038F0000000001818083000000000000000041844
:103900003060100C06000000000000000000000005
:103910007E007E0000000000000000000000301863
:1039200004060C1020000000000000301C060606F3
:1039300018100010100000000000001C224141DDA2
:10394000B5A5A5AF94C0403C00000000181C34246D
:1039500026627E43C1000000000000007C46424613
:103960007C4242427C000000000000001E204040DB
:10397000404040603E000000000000007C464243A2
:103980004343424678000000000000007E60606013
:103990007E6060607E000000000000007E6060606D
:1039A0007E60606060000000000000001E6040401B
:1039B000CE4242623E00000000000000424242420D
:1039C0007E42424242000000000000007E181818AB
:1039D000181818187E000000000000007C04040481
:1039E00004040444780000000000000042444850F1
:1039F00070584C44420000000000000020202020AD
:103A0000202020203E000000000000006266675F6A
:103A10005B5BC1C1C1000000000000006262725225
:103A20005A4A4E4646000000000000003C6243C374
:103A3000C3C343623C000000000000007C464242D9
:103A40004678404040000000000000003C6243C354
:103A5000C3C343623C180F00000000007C6662662E
:103A60007C6C646662000000000000003E60406004
:103A70001C0602027C000000000000007F181818DD
:103A800018181818180000000000000042424242B6
:103A9000424242623C00000000000000C14342621A
:103AA0002624341C1800000000000000C1C1414958
:103AB0005B5B766666000000000000004366341819
:103AC000181C2466C300000000000000C1426634D8
:103AD0001C18181818000000000000007E02040CDA
:103AE000181020607E0000000000001C1010101054
:103AF000101010101010101C00000040202010109A
:103B000008080C04060200000000003C0C0C0C0C21
:103B10000C0C0C0C0C0C0C3C00000000181C24625B
:103B20000000000000000000000000000000000095
:103B300000000000000000FF000000201000000056
:103B400000000000000000000000000000003C0633
:103B5000023E42467A0000000000004040405C62A5
:103B6000424242427C0000000000000000001E2093
:103B7000604060203E0000000000000202023E6241
:103B8000424242663A0000000000000000003C6231
:103B9000427E40603E0000000000000F1810107EC2
:103BA00010101010100000000000000000003F6620
:103BB000426658403E43423C0000004040405C6248
:103BC00042424242420000000000001818007808FB
:103BD000080808087E000000000000040C007C04B7
:103BE0000404040404040C78000000606060626C4B
:103BF0007870686462000000000000780808080817
:103C0000080808087E000000000000000000764B55
:103C10004B4B4B4B4B0000000000000000005C626F
:103C200042424242420000000000000000003C62AC
:103C3000424342623C0000000000000000005C6261
:103C4000424242427C4040400000000000003E6290
:103C5000424242663A0202020000000000006E7218
:103C600063606060600000000000000000003E2013
:103C7000203C06027C000000000000001010FE1036
:103C8000101010101E000000000000000000424252
:103C9000424242663A000000000000000000434239
:103CA0006624341818000000000000000000C1C1A4
:103CB0005B5A5E666600000000000000000062269D
:103CC0001C181C2662000000000000000000434297
:103CD0006624341C181830E00000000000007E0646
:103CE0000C1810207E0000000000000E18101010AC
:103CF000307010101010180E00000808080808088E
:103D00000808080808080808000000301808080813
:103D10000C0E080808081830000000000000000021
:103D2000714B0600000000000000000000000000D1
:103D30000000000000000000000000000000000083
:103D40000000000000000000000000000000000073
:103D50000000000000000000000000000000000063
:103D600000000380018001800180018001800180CA
:103D70000180018001800000000003C003C000003A
:103D80000000000000000000000000000000000033
:103D900000000E700E700E700C300000000000006D
:103DA0000000000000000000000000000000000013
:103DB0000000000000000000000000000000000003
:103DC000000000000618063806307FFE0C300C306C
:103DD0000C300C307FFE0C601C6018601860000016
:103DE00000000000000000000000000000000000D3
:103DF00000C000C00FF83CC831C031803D801F803A
:103E000003F001F8031C030C031C3FF83FE007001C
:103E1000060000000000000000000000000000009C
:103E20001C007E0E630C631863307E6000C001804E
:103E30000300077C0EE61CC618C630C6607C000076
:103E40000000000000000000000000000000000072
:103E500000000FE01CF0387038701C601FC00F00AD
:103E60003F8C71CC60EC607C70383CFC1FCE000055
:103E70000000000000000000000000000000000042
:103E8000000003C0018001800180000000000000EC
:103E90000000000000000000000000000000000022
:103EA0000000000000000000000000000000000012
:103EB000003000E001C0018003000700060006009A
:103EC0000E000E000E000E00060007000300038027
:103ED00001C000E000300000000000000000000011
:103EE0000C0006000380018001C000E0006000605B
:103EF0000070007000700060006000E000C0018091
:103F0000038006000C00000000000000000000001C
:103F10000000018011881DB803C007E03DBC018886
:103F20000180000000000000000000000000000010
:103F30000000000000000000000000000000000081
:103F4000000000000000000001800180018001806D
:103F500001807FFE0180018001800180000000005F
:103F60000000000000000000000000000000000051
:103F70000000000000000000000000000000000041
:103F8000000000000000000003C003C001C001C029
:103F900003801F000000000000000000000000007F
:103FA0000000000000000000000000000000000011
:103FB00000000FF000000000000000000000000002
:103FC00000000000000000000000000000000000F1
:103FD00000000000000000000000000000000000E1
:103FE000000000000000000003C003C003C0000088
:103FF00000000000000000000000000000000000C1
:104000000000001800380030006000E000C001C06F
:1040100001800300030006000E000C001C001800C5
:104020003000000000000000000000000000000060
:10403000000001800FF01C38381C301C707E70EEC0
:10404000738E7E0E7C0C300C381C1E780FE0000046
:104050000000000000000000000000000000000060
:104060000000000007C01FC039C001C001C001C06E
:1040700001C001C001C001C001C03FFC3FFC000005
:104080000000000000000000000000000000000030
:10409000000003801FF0183800380018003800387E
:1040A000007001E0038007001C003FFC3FFC0000A3
:1040B0000000000000000000000000000000000000
:1040C000000007801FF0003800380038003007E09B
:1040D00007F00038001C001C001820F83FE000002A
:1040E00000000000000000000000000000000000D0
:1040F0000000000000F001B0033007300E301C302B
:10410000383070307FFE7FFE00300030003000001D
:10411000000000000000000000000000000000009F
:10412000000000001FF818001800180018001FE019
:1041300000F8001C001C001C003800F01FC000002C
:10414000000000000000000000000000000000006F
:104150000000000003F80F001C001800300037F8C2
:104160003C3C300C300C380C381C1E380FF0000072
:10417000000000000000000000000000000000003F
:10418000000000003FFC001C0018003800700060B8
:1041900000E001C001800380070006000E0000005F
:1041A000000000000000000000000000000000000F
:1041B000000003C01FF8381C381C381C1C380FF0D6
:1041C00007F01C78381C300C381C3C380FF000000D
:1041D00000000000000000000000000000000000DF
:1041E000000003801FF03838301C701C700C380C35
:1041F0001FFC0FCC001C001800701FE01F80000087
:1042000000000000000000000000000000000000AE
:104210000000000000000000000003C003C0018097
:10422000000000000000000003C003C003C0000045
:10423000000000000000000000000000000000007E
:104240000000000000000000000003C003C0018067
:10425000000000000000000003C003C001C001C056
:1042600003800F00000000000000000000000000BC
:104270000000000000000000003800F001C007004E
:104280001E0038000E00078001C0007000300000E2
:10429000000000000000000000000000000000001E
:1042A00000000000000000000000000000003FFCD3
:1042B000000000003FFC3FFC000000000000000088
:1042C00000000000000000000000000000000000EE
:1042D00000000000000000001C000F00038001E04F
:1042E0000078001C007001E003800E000C0000004C
:1042F00000000000000000000000000000000000BE
:1043000000000FC000F0003800380038003803F01B
:104310000380030003000000000007800780000006
:10432000000000000000000000000000000000008D
:1043300000E007F80C0C18063006700363F36633D0
:10434000C673CC63CC62CC66CCE6C7FCE0006000F0
:10435000700038101FF00000000000000000000096
:104360000000000003C007E006E00E700E700C3085
:104370001C3818183FFC3FFC700E600EE007000070
:10438000000000000000000000000000000000002D
:10439000000000003FF03838381C381C38383FF037
:1043A0003FF8381C380C380C381C3FF83FE0000050
:1043B00000000000000000000000000000000000FD
:1043C000000000E007FC1E043800380030007000D8
:1043D00070007000300038003C001F9C07FC00009B
:1043E00000000000000000000000000000000000CD
:1043F000000000003FF03078301C300C300E300EE2
:10440000300E300E300E301C30383FF03FC0000010
:10441000000000000000000000000000000000009C
:10442000000000001FF818001800180018001FF8FE
:104430001FF818001800180018001FF81FF80000D7
:10444000000000000000000000000000000000006C
:10445000000000001FF818001800180018001FF8CE
:104460001FF81800180018001800180018000000A5
:10447000000000000000000000000000000000003C
:10448000000000F007FC1E043800300070007000CF
:1044900070FC700C700C300C380C1F1C07FC0000FA
:1044A000000000000000000000000000000000000C
:1044B00000000000300C300C300C300C300C3FFC95
:1044C0003FFC300C300C300C300C300C300C000049
:1044D00000000000000000000000000000000000DC
:1044E000000000003FFC018001800180018001800C
:1044F000018001800180018001803FFC3FFC0000C1
:1045000000000000000000000000000000000000AB
:10451000000000001FF0003000300030003000309C
:10452000003000300030003000701DE01FC000007F
:10453000000000000000000000000000000000007B
:1045400000000000381C387038E039C03B803F0064
:104550003F003B8039C038E038703838381C0000E4
:10456000000000000000000000000000000000004B
:10457000000000001C001C001C001C001C001C0093
:104580001C001C001C001C001C001FFC1FFC000069
:10459000000000000000000000000000000000001B
:1045A00000000000381C7C3C6C3E6E6E666E66CE71
:1045B00063C663866186600660066006600600006A
:1045C00000000000000000000000000000000000EB
:1045D000000000003C0C3C0C3E0C360C330C338CC1
:1045E000318C31CC30EC306C307C303C301C0000F5
:1045F00000000000000000000000000000000000BB
:10460000000001C00FF81C3C381C700E700E6006D4
:104610006006700E700E700C381C1E780FE00000E3
:10462000000000000000000000000000000000008A
:10463000000000003FF0383C381C380C380C381CA7
:1046400038783FE038003800380038003800000083
:10465000000000000000000000000000000000005A
:10466000000001C00FF81C3C381C700E700E600674
:104670006006700E700E700C381C1E780FE0018002
:1046800001C000FF003C000000000000000000002E
:10469000000000003FF0383838183818383838F043
:1046A0003FC038E0387038383838381C380E0000D1
:1046B00000000000000000000000000000000000FA
:1046C000000001E00FF83800380038003C001F807F
:1046D00003F00078001C001C001C38783FE000004C
:1046E00000000000000000000000000000000000CA
:1046F000000000007FFE01800180018001800180B8
:104700000180018001800180018001800180000022
:104710000000000000000000000000000000000099
:1047200000000000300C300C300C300C300C300C21
:10473000300C300C300C300C381C1C380FF00000E2
:104740000000000000000000000000000000000069
:1047500000000000E006700E700E381C381C1C189B
:104760001C380C300E70066007E003C003C0000068
:104770000000000000000000000000000000000039
:1047800000000000600660066006600661866386C1
:1047900073C673CE766C366C3C3C3C3C381C0000D7
:1047A0000000000000000000000000000000000009
:1047B00000000000301C38181C380E7007E003C0E1
:1047C00003C007E00E701C381838381C700E00004B
:1047D00000000000000000000000000000000000D9
:1047E00000000000700E700C381C1C380E70066043
:1047F00007E003C00180018001800180018000008A
:1048000000000000000000000000000000000000A8
:10481000000000003FFC001C0038007000E001C0F8
:10482000038007000E000C0018003FFC3FFC000056
:104830000000000000000000000000000000000078
:1048400007F007F006000600060006000600060056
:104850000600060006000600060006000600060028
:104860000600060007F00000000000000000000045
:10487000000018001C000C00060007000300038065
:10488000018001C000C000600070003000380018D6
:10489000000C00000000000000000000000000000C
:1048A0000FE00FE0006000600060006000600060EA
:1048B00000600060006000600060006000600060F8
:1048C000006000600FE00000000000000000000039
:1048D0000000000003C006C006600C301818301C31
:1048E00000000000000000000000000000000000C8
:1048F00000000000000000000000000000000000B8
:1049000000000000000000000000000000000000A7
:104910000000000000000000000000000000000097
:1049200000000000FFFF0000000000000000000089
:1049300000001E00038000000000000000000000D6
:104940000000000000000000000000000000000067
:104950000000000000000000000000000000000057
:10496000000000000000000000001FF01038001CD4
:10497000001C0FFC1C1C381C381C3CFC1FDC0000FD
:104980000000000000000000000000000000000027
:10499000000038003800380038003BF83E1C3C1C52
:1049A000380C380C380C380C381C3C781FE00000F0
:1049B00000000000000000000000000000000000F7
:1049C0000000000000000000000007F80E001C00BE
:1049D00038003800380038001C000F1807F80000B5
:1049E00000000000000000000000000000000000C7
:1049F0000000001C001C001C001C0FFC1C1C381CB0
:104A0000301C301C301C301C383C1CFC0F9C00003F
:104A10000000000000000000000000000000000096
:104A2000000000000000000000000FF01C38381CDF
:104A3000300C3FFC3000300038001E0C07FC00003A
:104A40000000000000000000000000000000000066
:104A5000003C01FE03800300030003007FFC7FFC99
:104A60000300030003000300030003000300000031
:104A70000000000000000000000000000000000036
:104A8000000000000000000000000FFE1C38381875
:104A9000381818381FF03B8030003FF01FFC300EF4
:104AA000700E381C1FF8000000000000000000001D
:104AB000000038003800380038003BF83E383C1C15
:104AC000381C381C381C381C381C381C381C00009A
:104AD00000000000000000000000000000000000D6
:104AE000018003C003C0000000001FC001C001C05E
:104AF00001C001C001C001C001C001C03FFC0000F5
:104B000000000000000000000000000000000000A5
:104B1000002000700070000000003FF00070007086
:104B20000070007000700070007000700070007005
:104B3000007020E03FC00000000000000000000006
:104B400000001800180018001800183C187018E031
:104B50001B801F001B8019E018701838181C0000FB
:104B60000000000000000000000000000000000045
:104B700000001FC001C001C001C001C001C001C0D0
:104B800001C001C001C001C001C001C03FFC000064
:104B90000000000000000000000000000000000015
:104BA000000000000000000000006F3C79EE71CEB4
:104BB000718E718E718E718E718E718E718E0000FC
:104BC00000000000000000000000000000000000E5
:104BD000000000000000000000003BF83E383C1CD4
:104BE000381C381C381C381C381C381C381C000079
:104BF00000000000000000000000000000000000B5
:104C0000000000000000000000000FF01C3C381CF9
:104C1000700E700E700E700C381C1E780FE00000C5
:104C20000000000000000000000000000000000084
:104C3000000000000000000000003BF83E1C3C1C8F
:104C4000380C380C380C380C381C3C783FE03800F5
:104C500038003800380000000000000000000000AC
:104C6000000000000000000000000FFC1C1C381CAD
:104C7000301C301C301C301C383C1CFC0F9C001CB1
:104C8000001C001C001C00000000000000000000D0
:104C90000000000000000000000019F81F1C1C0CA0
:104CA000180E18001800180018001800180000004E
:104CB00000000000000000000000000000000000F4
:104CC000000000000000000000000FF81C001800A9
:104CD0001E000FC001F80018001818381FF000005F
:104CE00000000000000000000000000000000000C4
:104CF000000000000600060006007FFC060006001B
:104D000006000600060006000700078401FC0000FC
:104D10000000000000000000000000000000000093
:104D200000000000000000000000381C381C381C87
:104D3000381C381C381C381C383C1CFC0FDC0000AC
:104D40000000000000000000000000000000000063
:104D500000000000000000000000700C381C381833
:104D60001C380C300E70066007E003C003C0000062
:104D70000000000000000000000000000000000033
:104D80000000000000000000000060066006618670
:104D9000738E73CC33CC366C366C3C3C3C380000A4
:104DA0000000000000000000000000000000000003
:104DB00000000000000000000000381C1C380E70CD
:104DC00007E003C003C007E00E701C38381E000067
:104DD00000000000000000000000000000000000D3
:104DE00000000000000000000000700C381C3818A3
:104DF0001C380C300E70066007E003C003C003804F
:104E000007000E007C000000000000000000000011
:104E1000000000000000000000001FF800380070D3
:104E200000E001C0038007000C001FFC3FFC0000F5
:104E30000000000000000000000000000000000072
:104E4000007801F80380038003800380038003005F
:104E50003F003E0003000380038003800380038043
:104E6000038001C000F80000000000000180018004
:104E7000018001800180018001800180018001802A
:104E8000018001800180018001800180018001801A
:104E9000018001800180000000000000000000008F
:104EA0001E001F80018001C001C001C001C000C000
:104EB00000FC007C00C001C001C001C001C001C0F5
:104EC00001C003801F00000000000000000000007F
:104ED00000000000000000000000000000001C00B6
:104EE0003F0671CE60FC00000000000000000000E2
:104EF00000000000000000000000000000000000B2
:104F000000000000000000000000000000000000A1
:104F10000000000000000000000000000000000091
:104F20000000000000000000000000000000000081
:104F30000000000000000000000000000000000071
:104F40000000000000000000000000000000000061
:104F50000000000000000000000000000000000051
:104F600000000000000000000000003C00003C00C9
:104F7000003C00003C00003C00003C00003C000005
:104F80003C00003C00003C00003C00003C00003CB9
:104F900000003C00000000000000003C00007E001B
:104FA000003C0000000000000000000000000000C5
:104FB00000000000000000000000000000000000F1
:104FC0000000000000000000000003C3E003C3E095
:104FD00003C3C003C3C003C3C003C3C003C1C00035
:104FE00000000000000000000000000000000000C1
:104FF00000000000000000000000000000000000B1
:1050000000000000000000000000000000000000A0
:105010000000000000000000000000000000000090
:105020000000000000000000000000000000000080
:1050300001E0E001C0E001C0E001C0E03FFFFE3F51
:10504000FFFE03C1C00381C00381C00381C07FFF95
:10505000FC7FFFFC07838007038007038007038032
:1050600007078000000000000000000000000000B2
:105070000000000000000000000000000000000030
:1050800000000000000000000700000F00000E00FC
:1050900001FFF007FFF01F0E001E1E001E1C001E69
:1050A0001C000FDC0007FC0000FF80003FF0003810
:1050B000F800387800783C0070783071F83FFFE0F5
:1050C0001FFF0000E00000E00000E0000000000022
:1050D00000000000000000000000000000000000D0
:1050E000000000000000000000000F800F3FE01EE5
:1050F00078703C7070707070E07071C03FE3801F1A
:10510000C700000E00001C0000780000F0F001E76E
:10511000FC03CF0E078E0E0F0E0E1E0E0E3C07BCAC
:105120007003F80000000000000000000000000014
:10513000000000000000000000000000000000006F
:105140000000000000000000000000000001FF005F
:1051500007FF800F03C00F03C00F03C00F078007B6
:105160009F0003FE0003F0000FF83C3E7C3C3C1F18
:105170003C780FF87807F87C01F03E03F81FFFFC3D
:1051800007FE1F00000000000000000000000000FB
:10519000000000000000000000000000000000000F
:1051A00000000000000000000000003E00003C0085
:1051B000003C00003C00003C00003C00003C0000C3
:1051C00000000000000000000000000000000000DF
:1051D00000000000000000000000000000000000CF
:1051E00000000000000000000000000000000000BF
:1051F00000000000000000000000000000000000AF
:10520000000000000000000000800001C0000780D6
:10521000000F00001E00003C0000780000F00000BD
:10522000E00001E00001E00001C00003C00003C095
:105230000001C00001E00001E00000F00000F0000B
:10524000007800003C00001E00000F000007C000B6
:1052500001C000000000000000000000000000008D
:105260000000000000000000000003C00001E0009A
:1052700000F000007C00003E00001E00000F000057
:1052800007800007800003800003C00003C0000304
:10529000C00003C0000380000780000780000F00EB
:1052A000001E00003C0000780000F00001E0000358
:1052B000800000000000000000000000000000006E
:1052C00000000000000000000000001C00001C00A6
:1052D0000018000F18F007DBE0007F0000FF000758
:1052E000DBE00E1870001800001C00001C0000001D
:1052F00000000000000000000000000000000000AE
:10530000000000000000000000000000000000009D
:10531000000000000000000000000000000000008D
:10532000000000000000000000000000000000007D
:10533000000000000000000000003C00003C0000F5
:105340003C00003C00003C00003C003FFFFC3FFFF5
:10535000FC003C00003C00003C00003C00003C0025
:10536000000000000000000000000000000000003D
:10537000000000000000000000000000000000002D
:10538000000000000000000000000000000000001D
:10539000000000000000000000000000000000000D
:1053A00000000000000000000000000000000000FD
:1053B00000000000000000007C00007E00007E0075
:1053C000003E00001E00003C0000F80007E0000462
:1053D00000000000000000000000000000000000CD
:1053E00000000000000000000000000000000000BD
:1053F00000000000000000000000000000000000AD
:10540000000000000000000000000003FFE003FFB8
:10541000E0000000000000000000000000000000AC
:10542000000000000000000000000000000000007C
:10543000000000000000000000000000000000006C
:10544000000000000000000000000000000000005C
:10545000000000000000000000000000000000004C
:10546000000000000000000000000000000000003C
:1054700000000000000000007C0000FE0000FE00B4
:10548000007E00000000000000000000000000009E
:10549000000000000000000000000000000000000C
:1054A000000000000000000000000000780000F094
:1054B0000000E00001E00003C0000380000780005E
:1054C0000F00000E00001E00003C000038000070BD
:1054D0000000F00000E00001C00003C000078000F1
:1054E0000700000F00001E00001C0000000000006C
:1054F00000000000000000000000000000000000AC
:10550000000000000000000000000000000000009B
:1055100001FFC007FFE00F00F01E00781E003C3CBA
:1055200000FC3C07FC3C1FBC3C7C1C3DF03C3FC0ED
:105530003C3F003C1E00381E00780F80F007FFE063
:1055400001FF8000000000000000000000000000DB
:10555000000000000000000000000000000000004B
:10556000000000000000000000000000000000003B
:10557000007E0003FE001FDE000E1E00001E000065
:105580001E00001E00001E00001E00001E00001E67
:1055900000001E00001E00001E00001E000FFFF88D
:1055A0000FFFF800000000000000000000000000F5
:1055B00000000000000000000000000000000000EB
:1055C00000000000000000000000000000000000DB
:1055D00003FF800FFFE00E01F00000F00000F0007C
:1055E00000F00000F00001E00003C0000F80003E6A
:1055F00000007C0001F00003C0000F80001FFFFCD2
:105600001FFFFC0000000000000000000000000080
:10561000000000000000000000000000000000008A
:10562000000000000000000000000000000000007A
:105630000FFF800FFFE00001E00000F00000F0002D
:1056400001E00003C001FF0001FFC00003F0000003
:10565000780000780000780000780001F00FFFC0AB
:105660000FFF00000000000000000000000000002C
:10567000000000000000000000000000000000002A
:10568000000000000000000000000000000000001A
:10569000000FC0001FC0003FC0007BC000F3C0016E
:1056A000E3C003C3C00783C00F03C01C03C038039B
:1056B000C07FFFFE7FFFFE0003C00003C00003C0E9
:1056C0000003C00000000000000000000000000017
:1056D00000000000000000000000000000000000CA
:1056E00000000000000000000000000000000000BA
:1056F0000FFFE00FFFE00F00000F00000F00000F92
:1057000000000F00000FFF800FFFE00000F000001E
:10571000780000780000780000F00003E00FFFC080
:105720000FFE00000000000000000000000000006C
:105730000000000000000000000000000000000069
:105740000000000000000000000000000000000059
:10575000003FF001FFF003E0000780000F00001E93
:1057600000001E1F001FFFE01FC1F81E00781E0072
:105770003C1E003C1E003C0F00780F80F807FFE045
:1057800001FF800000000000000000000000000099
:105790000000000000000000000000000000000009
:1057A00000000000000000000000000000000000F9
:1057B0001FFFFC1FFFFC0000780000F00000E0006D
:1057C00001E00003C0000780000F00000F00001E72
:1057D00000003C0000780000F00001F00001E00053
:1057E00003C00000000000000000000000000000F6
:1057F00000000000000000000000000000000000A9
:105800000000000000000000000000000000000098
:1058100003FFE00FE3F00F00781E00781E00780F02
:1058200000F007E3E001FF8001FF8007E7E00F00E1
:10583000F81E00781E003C1E007C1F00F80FFFF0D1
:1058400003FFC00000000000000000000000000096
:105850000000000000000000000000000000000048
:105860000000000000000000000000000000000038
:1058700003FF800FC7E01E00F01E00783C00783C5C
:1058800000783C00381E00780FEFF807FFB80000E2
:10589000780000780000F00001E0000FC00FFF006A
:1058A0000FF00000000000000000000000000000F9
:1058B00000000000000000000000000000000000E8
:1058C00000000000000000000000000000000000D8
:1058D000000000000000000000000000007E00004A
:1058E0007E00007E000018000000000000000000A4
:1058F00000000000000000003C00007E00007E0070
:10590000003E000000000000000000000000000059
:105910000000000000000000000000000000000087
:105920000000000000000000000000000000000077
:10593000000000000000000000000000007E0000E9
:105940007E00007E00001800000000000000000043
:1059500000000000000000003E00007E00007F000C
:10596000001F00001E00001E0000FC0007F00004E5
:105970000000000000000000000000000000000027
:105980000000000000000000000000000000000017
:105990000000000000000000400001E00007C0001F
:1059A0001F00007E0001F80003E0000F80000F8060
:1059B0000003E00000F800003E00000F800003E05C
:1059C0000000E000000000000000000000000000F7
:1059D00000000000000000000000000000000000C7
:1059E00000000000000000000000000000000000B7
:1059F00000000000000000000000000000000000A7
:105A000000000000001FFFF8000000000000000080
:105A1000001FFFF81FFFF80000000000000000005A
:105A20000000000000000000000000000000000076
:105A30000000000000000000000000000000000066
:105A40000000000000000000000000000000000056
:105A500000000000000000000007800003E00000DC
:105A6000F800003E00000F800003E00000F8000195
:105A7000F00007C0001F00007C0001F00007C0001C
:105A80000300000000000000000000000000000013
:105A90000000000000000000000000000000000006
:105AA0000000000000000000000001C00001FE0036
:105AB000007F800007C00001E00000F00000F0005F
:105AC00001F00003E0007FC0007E00007000007065
:105AD0000000700000000000000000F80000F80066
